{
  "contractName": "Registry",
  "abi": [
    {
      "constant": true,
      "inputs": [],
      "name": "creator",
      "outputs": [
        {
          "name": "",
          "type": "address"
        }
      ],
      "payable": false,
      "stateMutability": "view",
      "type": "function"
    },
    {
      "constant": true,
      "inputs": [
        {
          "name": "",
          "type": "address"
        }
      ],
      "name": "isDelegate",
      "outputs": [
        {
          "name": "",
          "type": "bool"
        }
      ],
      "payable": false,
      "stateMutability": "view",
      "type": "function"
    },
    {
      "constant": true,
      "inputs": [
        {
          "name": "",
          "type": "uint256"
        }
      ],
      "name": "identificationData",
      "outputs": [
        {
          "name": "blockTimeModified",
          "type": "uint256"
        },
        {
          "name": "dateModified",
          "type": "uint256"
        },
        {
          "name": "doi",
          "type": "string"
        },
        {
          "name": "rfid",
          "type": "string"
        },
        {
          "name": "provenance",
          "type": "string"
        },
        {
          "name": "wallet",
          "type": "address"
        }
      ],
      "payable": false,
      "stateMutability": "view",
      "type": "function"
    },
    {
      "constant": true,
      "inputs": [
        {
          "name": "",
          "type": "address"
        }
      ],
      "name": "isArchaeologist",
      "outputs": [
        {
          "name": "",
          "type": "bool"
        }
      ],
      "payable": false,
      "stateMutability": "view",
      "type": "function"
    },
    {
      "constant": true,
      "inputs": [],
      "name": "attributionsCreated",
      "outputs": [
        {
          "name": "",
          "type": "uint256"
        }
      ],
      "payable": false,
      "stateMutability": "view",
      "type": "function"
    },
    {
      "constant": true,
      "inputs": [],
      "name": "identificationsCreated",
      "outputs": [
        {
          "name": "",
          "type": "uint256"
        }
      ],
      "payable": false,
      "stateMutability": "view",
      "type": "function"
    },
    {
      "constant": true,
      "inputs": [
        {
          "name": "",
          "type": "uint256"
        }
      ],
      "name": "attributionData",
      "outputs": [
        {
          "name": "dateFound",
          "type": "uint256"
        },
        {
          "name": "archaeologist",
          "type": "address"
        },
        {
          "name": "governmentVerifier",
          "type": "address"
        },
        {
          "name": "owner",
          "type": "address"
        }
      ],
      "payable": false,
      "stateMutability": "view",
      "type": "function"
    },
    {
      "constant": true,
      "inputs": [
        {
          "name": "",
          "type": "uint256"
        },
        {
          "name": "",
          "type": "uint256"
        }
      ],
      "name": "artifacts",
      "outputs": [
        {
          "name": "",
          "type": "uint256"
        }
      ],
      "payable": false,
      "stateMutability": "view",
      "type": "function"
    },
    {
      "constant": true,
      "inputs": [],
      "name": "archaeologistsRegistered",
      "outputs": [
        {
          "name": "",
          "type": "uint256"
        }
      ],
      "payable": false,
      "stateMutability": "view",
      "type": "function"
    },
    {
      "constant": true,
      "inputs": [
        {
          "name": "",
          "type": "uint256"
        }
      ],
      "name": "archaeologists",
      "outputs": [
        {
          "name": "",
          "type": "address"
        }
      ],
      "payable": false,
      "stateMutability": "view",
      "type": "function"
    },
    {
      "constant": true,
      "inputs": [],
      "name": "locationsCreated",
      "outputs": [
        {
          "name": "",
          "type": "uint256"
        }
      ],
      "payable": false,
      "stateMutability": "view",
      "type": "function"
    },
    {
      "constant": true,
      "inputs": [
        {
          "name": "",
          "type": "uint256"
        }
      ],
      "name": "artifactData",
      "outputs": [
        {
          "name": "uid",
          "type": "uint256"
        },
        {
          "components": [
            {
              "name": "blockTimeModified",
              "type": "uint256"
            },
            {
              "name": "dateModified",
              "type": "uint256"
            },
            {
              "name": "doi",
              "type": "string"
            },
            {
              "name": "rfid",
              "type": "string"
            },
            {
              "name": "provenance",
              "type": "string"
            },
            {
              "name": "wallet",
              "type": "address"
            }
          ],
          "name": "identification",
          "type": "tuple"
        },
        {
          "components": [
            {
              "name": "dateFound",
              "type": "uint256"
            },
            {
              "name": "archaeologist",
              "type": "address"
            },
            {
              "name": "governmentVerifier",
              "type": "address"
            },
            {
              "name": "owner",
              "type": "address"
            }
          ],
          "name": "attribution",
          "type": "tuple"
        },
        {
          "components": [
            {
              "name": "holder",
              "type": "address"
            },
            {
              "name": "currentLatitude",
              "type": "string"
            },
            {
              "name": "currentLongitude",
              "type": "string"
            },
            {
              "name": "transitStatus",
              "type": "string"
            }
          ],
          "name": "location",
          "type": "tuple"
        }
      ],
      "payable": false,
      "stateMutability": "view",
      "type": "function"
    },
    {
      "constant": true,
      "inputs": [
        {
          "name": "",
          "type": "uint256"
        }
      ],
      "name": "locationData",
      "outputs": [
        {
          "name": "holder",
          "type": "address"
        },
        {
          "name": "currentLatitude",
          "type": "string"
        },
        {
          "name": "currentLongitude",
          "type": "string"
        },
        {
          "name": "transitStatus",
          "type": "string"
        }
      ],
      "payable": false,
      "stateMutability": "view",
      "type": "function"
    },
    {
      "constant": true,
      "inputs": [],
      "name": "artifactsRegistered",
      "outputs": [
        {
          "name": "",
          "type": "uint256"
        }
      ],
      "payable": false,
      "stateMutability": "view",
      "type": "function"
    },
    {
      "inputs": [],
      "payable": false,
      "stateMutability": "nonpayable",
      "type": "constructor"
    },
    {
      "payable": true,
      "stateMutability": "payable",
      "type": "fallback"
    },
    {
      "constant": false,
      "inputs": [
        {
          "name": "_address",
          "type": "address"
        }
      ],
      "name": "addDelegate",
      "outputs": [
        {
          "name": "",
          "type": "bool"
        }
      ],
      "payable": false,
      "stateMutability": "nonpayable",
      "type": "function"
    },
    {
      "constant": false,
      "inputs": [
        {
          "name": "_address",
          "type": "address"
        }
      ],
      "name": "addArchaeologist",
      "outputs": [
        {
          "name": "",
          "type": "uint256"
        }
      ],
      "payable": false,
      "stateMutability": "nonpayable",
      "type": "function"
    },
    {
      "constant": false,
      "inputs": [
        {
          "name": "dateModified",
          "type": "uint256"
        },
        {
          "name": "doi",
          "type": "string"
        },
        {
          "name": "rfid",
          "type": "string"
        },
        {
          "name": "provenance",
          "type": "string"
        },
        {
          "name": "wallet",
          "type": "address"
        }
      ],
      "name": "createIdentification",
      "outputs": [
        {
          "name": "",
          "type": "uint256"
        }
      ],
      "payable": false,
      "stateMutability": "nonpayable",
      "type": "function"
    },
    {
      "constant": false,
      "inputs": [
        {
          "name": "dateFound",
          "type": "uint256"
        },
        {
          "name": "governmentVerifier",
          "type": "address"
        },
        {
          "name": "owner",
          "type": "address"
        }
      ],
      "name": "createAttribution",
      "outputs": [
        {
          "name": "",
          "type": "uint256"
        }
      ],
      "payable": false,
      "stateMutability": "nonpayable",
      "type": "function"
    },
    {
      "constant": false,
      "inputs": [
        {
          "name": "currentLatitude",
          "type": "string"
        },
        {
          "name": "currentLongitude",
          "type": "string"
        },
        {
          "name": "transitStatus",
          "type": "string"
        }
      ],
      "name": "createLocation",
      "outputs": [
        {
          "name": "",
          "type": "uint256"
        }
      ],
      "payable": false,
      "stateMutability": "nonpayable",
      "type": "function"
    },
    {
      "constant": false,
      "inputs": [
        {
          "name": "identificationId",
          "type": "uint256"
        },
        {
          "name": "attributionId",
          "type": "uint256"
        },
        {
          "name": "locationId",
          "type": "uint256"
        }
      ],
      "name": "addArtifact",
      "outputs": [
        {
          "name": "",
          "type": "uint256"
        }
      ],
      "payable": false,
      "stateMutability": "nonpayable",
      "type": "function"
    },
    {
      "constant": false,
      "inputs": [
        {
          "name": "artifactId",
          "type": "uint256"
        },
        {
          "name": "clientTimestamp",
          "type": "uint256"
        },
        {
          "name": "provenance",
          "type": "string"
        },
        {
          "name": "holder",
          "type": "address"
        },
        {
          "name": "lat",
          "type": "string"
        },
        {
          "name": "lng",
          "type": "string"
        },
        {
          "name": "status",
          "type": "string"
        }
      ],
      "name": "updateArtifactLocation",
      "outputs": [
        {
          "name": "",
          "type": "bool"
        }
      ],
      "payable": false,
      "stateMutability": "nonpayable",
      "type": "function"
    },
    {
      "constant": true,
      "inputs": [],
      "name": "getArchaeologists",
      "outputs": [
        {
          "name": "",
          "type": "address[]"
        }
      ],
      "payable": false,
      "stateMutability": "view",
      "type": "function"
    },
    {
      "constant": true,
      "inputs": [
        {
          "name": "id",
          "type": "uint256"
        }
      ],
      "name": "getArchaeologistById",
      "outputs": [
        {
          "name": "",
          "type": "address"
        }
      ],
      "payable": false,
      "stateMutability": "view",
      "type": "function"
    },
    {
      "constant": true,
      "inputs": [
        {
          "name": "id",
          "type": "uint256"
        }
      ],
      "name": "getIdentificationById",
      "outputs": [
        {
          "name": "",
          "type": "uint256"
        },
        {
          "name": "",
          "type": "uint256"
        },
        {
          "name": "",
          "type": "string"
        },
        {
          "name": "",
          "type": "string"
        },
        {
          "name": "",
          "type": "string"
        },
        {
          "name": "",
          "type": "address"
        }
      ],
      "payable": false,
      "stateMutability": "view",
      "type": "function"
    },
    {
      "constant": true,
      "inputs": [
        {
          "name": "id",
          "type": "uint256"
        }
      ],
      "name": "getAttributionById",
      "outputs": [
        {
          "name": "",
          "type": "uint256"
        },
        {
          "name": "",
          "type": "address"
        },
        {
          "name": "",
          "type": "address"
        },
        {
          "name": "",
          "type": "address"
        }
      ],
      "payable": false,
      "stateMutability": "view",
      "type": "function"
    },
    {
      "constant": true,
      "inputs": [
        {
          "name": "id",
          "type": "uint256"
        }
      ],
      "name": "getLocationById",
      "outputs": [
        {
          "name": "",
          "type": "address"
        },
        {
          "name": "",
          "type": "string"
        },
        {
          "name": "",
          "type": "string"
        },
        {
          "name": "",
          "type": "string"
        }
      ],
      "payable": false,
      "stateMutability": "view",
      "type": "function"
    },
    {
      "constant": true,
      "inputs": [],
      "name": "getArtifacts",
      "outputs": [
        {
          "name": "",
          "type": "uint256[4][]"
        }
      ],
      "payable": false,
      "stateMutability": "view",
      "type": "function"
    },
    {
      "constant": true,
      "inputs": [
        {
          "name": "id",
          "type": "uint256"
        }
      ],
      "name": "getArtifactById",
      "outputs": [
        {
          "name": "",
          "type": "uint256[4]"
        }
      ],
      "payable": false,
      "stateMutability": "view",
      "type": "function"
    }
  ],
  "bytecode": "0x608060405260006002556000600555600060075560006009556000600b5534801561002957600080fd5b50336000806101000a81548173ffffffffffffffffffffffffffffffffffffffff021916908373ffffffffffffffffffffffffffffffffffffffff16021790555060018060003373ffffffffffffffffffffffffffffffffffffffff1673ffffffffffffffffffffffffffffffffffffffff16815260200190815260200160002060006101000a81548160ff021916908315150217905550614157806100d06000396000f30060806040526004361061016a576000357c0100000000000000000000000000000000000000000000000000000000900463ffffffff16806302d05d3f1461016c57806307779627146101975780630b7f4674146101d45780630cd372331461021657806314e8a78f1461025357806324559f45146102905780633b9e047a146102cd5780634c3ca0f4146102f8578063583bd9651461032357806358e9946a146103635780636a11fa011461038e5780636d54f340146103ce578063742889e01461040b57806377c48116146104485780637db55514146104735780639745bad1146104b05780639fbeb630146104ed578063aec96b1314610518578063b698cb9d14610555578063ba418cd814610592578063bd335b30146105bd578063d165ac78146105fd578063de428c8f1461063a578063e4d1d44d1461067c578063e71bdf41146106bc578063f0ccb27b146106f9578063f0f5659414610724578063f9231d9214610764575b005b34801561017857600080fd5b506101816107a1565b60405161018e9190613ced565b60405180910390f35b3480156101a357600080fd5b506101be60048036036101b991908101906135ff565b6107c6565b6040516101cb9190613e1b565b60405180910390f35b3480156101e057600080fd5b506101fb60048036036101f691908101906136cc565b6107e6565b60405161020d96959493929190613f5f565b60405180910390f35b34801561022257600080fd5b5061023d6004803603610238919081019061384c565b610a0a565b60405161024a9190613e1b565b60405180910390f35b34801561025f57600080fd5b5061027a600480360361027591908101906136f5565b610d8e565b6040516102879190613e36565b60405180910390f35b34801561029c57600080fd5b506102b760048036036102b291908101906135ff565b610f69565b6040516102c49190613e1b565b60405180910390f35b3480156102d957600080fd5b506102e2610f89565b6040516102ef9190613dde565b60405180910390f35b34801561030457600080fd5b5061030d611019565b60405161031a9190613e36565b60405180910390f35b34801561032f57600080fd5b5061034a600480360361034591908101906136cc565b61101f565b60405161035a9493929190613d08565b60405180910390f35b34801561036f57600080fd5b50610378611282565b6040516103859190613e36565b60405180910390f35b34801561039a57600080fd5b506103b560048036036103b091908101906136cc565b611288565b6040516103c59493929190613e51565b60405180910390f35b3480156103da57600080fd5b506103f560048036036103f09190810190613810565b611318565b6040516104029190613e36565b60405180910390f35b34801561041757600080fd5b50610432600480360361042d91908101906136cc565b61134e565b60405161043f9190613ced565b60405180910390f35b34801561045457600080fd5b5061045d611391565b60405161046a9190613e36565b60405180910390f35b34801561047f57600080fd5b5061049a600480360361049591908101906136cc565b611397565b6040516104a79190613ced565b60405180910390f35b3480156104bc57600080fd5b506104d760048036036104d2919081019061395c565b6113d5565b6040516104e49190613e36565b60405180910390f35b3480156104f957600080fd5b50610502611d3a565b60405161050f9190613dbc565b60405180910390f35b34801561052457600080fd5b5061053f600480360361053a91908101906135ff565b611dc8565b60405161054c9190613e36565b60405180910390f35b34801561056157600080fd5b5061057c60048036036105779190810190613628565b611f01565b6040516105899190613e36565b60405180910390f35b34801561059e57600080fd5b506105a7612108565b6040516105b49190613e36565b60405180910390f35b3480156105c957600080fd5b506105e460048036036105df91908101906136cc565b61210e565b6040516105f49493929190613e96565b60405180910390f35b34801561060957600080fd5b50610624600480360361061f9190810190613744565b6126f7565b6040516106319190613e36565b60405180910390f35b34801561064657600080fd5b50610661600480360361065c91908101906136cc565b612920565b60405161067396959493929190613ee9565b60405180910390f35b34801561068857600080fd5b506106a3600480360361069e91908101906136cc565b612bba565b6040516106b39493929190613d62565b60405180910390f35b3480156106c857600080fd5b506106e360048036036106de91908101906135ff565b612dd2565b6040516106f09190613e1b565b60405180910390f35b34801561070557600080fd5b5061070e612ee0565b60405161071b9190613e36565b60405180910390f35b34801561073057600080fd5b5061074b600480360361074691908101906136cc565b612ee6565b60405161075b9493929190613e51565b60405180910390f35b34801561077057600080fd5b5061078b600480360361078691908101906136cc565b612fb7565b6040516107989190613e00565b60405180910390f35b6000809054906101000a900473ffffffffffffffffffffffffffffffffffffffff1681565b60016020528060005260406000206000915054906101000a900460ff1681565b6006602052806000526040600020600091509050806000015490806001015490806002018054600181600116156101000203166002900480601f01602080910402602001604051908101604052809291908181526020018280546001816001161561010002031660029004801561089e5780601f106108735761010080835404028352916020019161089e565b820191906000526020600020905b81548152906001019060200180831161088157829003601f168201915b505050505090806003018054600181600116156101000203166002900480601f01602080910402602001604051908101604052809291908181526020018280546001816001161561010002031660029004801561093c5780601f106109115761010080835404028352916020019161093c565b820191906000526020600020905b81548152906001019060200180831161091f57829003601f168201915b505050505090806004018054600181600116156101000203166002900480601f0160208091040260200160405190810160405280929190818152602001828054600181600116156101000203166002900480156109da5780601f106109af576101008083540402835291602001916109da565b820191906000526020600020905b8154815290600101906020018083116109bd57829003601f168201915b5050505050908060050160009054906101000a900473ffffffffffffffffffffffffffffffffffffffff16905086565b6000803373ffffffffffffffffffffffffffffffffffffffff16600d60008f815260200190815260200160002060070160030160009054906101000a900473ffffffffffffffffffffffffffffffffffffffff1673ffffffffffffffffffffffffffffffffffffffff16141515610a8057600080fd5b600c8d815481101515610a8f57fe5b90600052602060002090600402016003600481101515610aab57fe5b015490506080604051908101604052808a73ffffffffffffffffffffffffffffffffffffffff16815260200189898080601f016020809104026020016040519081016040528093929190818152602001838380828437820191505050505050815260200187878080601f016020809104026020016040519081016040528093929190818152602001838380828437820191505050505050815260200185858080601f016020809104026020016040519081016040528093929190818152602001838380828437820191505050505050815250600a600083815260200190815260200160002060008201518160000160006101000a81548173ffffffffffffffffffffffffffffffffffffffff021916908373ffffffffffffffffffffffffffffffffffffffff1602179055506020820151816001019080519060200190610bf39291906133fc565b506040820151816002019080519060200190610c109291906133fc565b506060820151816003019080519060200190610c2d9291906133fc565b50905050600a6000828152602001908152602001600020600d60008f8152602001908152602001600020600b016000820160009054906101000a900473ffffffffffffffffffffffffffffffffffffffff168160000160006101000a81548173ffffffffffffffffffffffffffffffffffffffff021916908373ffffffffffffffffffffffffffffffffffffffff16021790555060018201816001019080546001816001161561010002031660029004610ce892919061347c565b5060028201816002019080546001816001161561010002031660029004610d1092919061347c565b5060038201816003019080546001816001161561010002031660029004610d3892919061347c565b50905050610d798d8d8d8d8080601f01602080910402602001604051908101604052809392919081815260200183838082843782019150505050505061301f565b5060019150509b9a5050505050505050505050565b6000803360011515600460008373ffffffffffffffffffffffffffffffffffffffff1673ffffffffffffffffffffffffffffffffffffffff16815260200190815260200160002060009054906101000a900460ff161515141515610df157600080fd5b600760008154809291906001019190505591506080604051908101604052808781526020013373ffffffffffffffffffffffffffffffffffffffff1681526020018673ffffffffffffffffffffffffffffffffffffffff1681526020018573ffffffffffffffffffffffffffffffffffffffff16815250600860008481526020019081526020016000206000820151816000015560208201518160010160006101000a81548173ffffffffffffffffffffffffffffffffffffffff021916908373ffffffffffffffffffffffffffffffffffffffff16021790555060408201518160020160006101000a81548173ffffffffffffffffffffffffffffffffffffffff021916908373ffffffffffffffffffffffffffffffffffffffff16021790555060608201518160030160006101000a81548173ffffffffffffffffffffffffffffffffffffffff021916908373ffffffffffffffffffffffffffffffffffffffff16021790555090505081925050509392505050565b60046020528060005260406000206000915054906101000a900460ff1681565b6060600c805480602002602001604051908101604052809291908181526020016000905b828210156110105783829060005260206000209060040201600480602002604051908101604052809291908260048015610ffc576020028201915b815481526020019060010190808311610fe8575b505050505081526020019060010190610fad565b50505050905090565b60075481565b60006060806060600a600086815260200190815260200160002060000160009054906101000a900473ffffffffffffffffffffffffffffffffffffffff16600a6000878152602001908152602001600020600101600a6000888152602001908152602001600020600201600a6000898152602001908152602001600020600301828054600181600116156101000203166002900480601f0160208091040260200160405190810160405280929190818152602001828054600181600116156101000203166002900480156111345780601f1061110957610100808354040283529160200191611134565b820191906000526020600020905b81548152906001019060200180831161111757829003601f168201915b50505050509250818054600181600116156101000203166002900480601f0160208091040260200160405190810160405280929190818152602001828054600181600116156101000203166002900480156111d05780601f106111a5576101008083540402835291602001916111d0565b820191906000526020600020905b8154815290600101906020018083116111b357829003601f168201915b50505050509150808054600181600116156101000203166002900480601f01602080910402602001604051908101604052809291908181526020018280546001816001161561010002031660029004801561126c5780601f106112415761010080835404028352916020019161126c565b820191906000526020600020905b81548152906001019060200180831161124f57829003601f168201915b5050505050905093509350935093509193509193565b60055481565b60086020528060005260406000206000915090508060000154908060010160009054906101000a900473ffffffffffffffffffffffffffffffffffffffff16908060020160009054906101000a900473ffffffffffffffffffffffffffffffffffffffff16908060030160009054906101000a900473ffffffffffffffffffffffffffffffffffffffff16905084565b600c8281548110151561132757fe5b90600052602060002090600402018160048110151561134257fe5b01600091509150505481565b600060038281548110151561135f57fe5b9060005260206000200160009054906101000a900473ffffffffffffffffffffffffffffffffffffffff169050919050565b60025481565b6003818154811015156113a657fe5b906000526020600020016000915054906101000a900473ffffffffffffffffffffffffffffffffffffffff1681565b6000803360011515600460008373ffffffffffffffffffffffffffffffffffffffff1673ffffffffffffffffffffffffffffffffffffffff16815260200190815260200160002060009054906101000a900460ff16151514151561143857600080fd5b600b60008154809291906001019190505591506080604051908101604052808381526020016006600089815260200190815260200160002060c060405190810160405290816000820154815260200160018201548152602001600282018054600181600116156101000203166002900480601f0160208091040260200160405190810160405280929190818152602001828054600181600116156101000203166002900480156115295780601f106114fe57610100808354040283529160200191611529565b820191906000526020600020905b81548152906001019060200180831161150c57829003601f168201915b50505050508152602001600382018054600181600116156101000203166002900480601f0160208091040260200160405190810160405280929190818152602001828054600181600116156101000203166002900480156115cb5780601f106115a0576101008083540402835291602001916115cb565b820191906000526020600020905b8154815290600101906020018083116115ae57829003601f168201915b50505050508152602001600482018054600181600116156101000203166002900480601f01602080910402602001604051908101604052809291908181526020018280546001816001161561010002031660029004801561166d5780601f106116425761010080835404028352916020019161166d565b820191906000526020600020905b81548152906001019060200180831161165057829003601f168201915b505050505081526020016005820160009054906101000a900473ffffffffffffffffffffffffffffffffffffffff1673ffffffffffffffffffffffffffffffffffffffff1673ffffffffffffffffffffffffffffffffffffffff168152505081526020016008600088815260200190815260200160002060806040519081016040529081600082015481526020016001820160009054906101000a900473ffffffffffffffffffffffffffffffffffffffff1673ffffffffffffffffffffffffffffffffffffffff1673ffffffffffffffffffffffffffffffffffffffff1681526020016002820160009054906101000a900473ffffffffffffffffffffffffffffffffffffffff1673ffffffffffffffffffffffffffffffffffffffff1673ffffffffffffffffffffffffffffffffffffffff1681526020016003820160009054906101000a900473ffffffffffffffffffffffffffffffffffffffff1673ffffffffffffffffffffffffffffffffffffffff1673ffffffffffffffffffffffffffffffffffffffff16815250508152602001600a6000878152602001908152602001600020608060405190810160405290816000820160009054906101000a900473ffffffffffffffffffffffffffffffffffffffff1673ffffffffffffffffffffffffffffffffffffffff1673ffffffffffffffffffffffffffffffffffffffff168152602001600182018054600181600116156101000203166002900480601f01602080910402602001604051908101604052809291908181526020018280546001816001161561010002031660029004801561190f5780601f106118e45761010080835404028352916020019161190f565b820191906000526020600020905b8154815290600101906020018083116118f257829003601f168201915b50505050508152602001600282018054600181600116156101000203166002900480601f0160208091040260200160405190810160405280929190818152602001828054600181600116156101000203166002900480156119b15780601f10611986576101008083540402835291602001916119b1565b820191906000526020600020905b81548152906001019060200180831161199457829003601f168201915b50505050508152602001600382018054600181600116156101000203166002900480601f016020809104026020016040519081016040528092919081815260200182805460018160011615610100020316600290048015611a535780601f10611a2857610100808354040283529160200191611a53565b820191906000526020600020905b815481529060010190602001808311611a3657829003601f168201915b505050505081525050815250600d60008481526020019081526020016000206000820151816000015560208201518160010160008201518160000155602082015181600101556040820151816002019080519060200190611ab59291906133fc565b506060820151816003019080519060200190611ad29291906133fc565b506080820151816004019080519060200190611aef9291906133fc565b5060a08201518160050160006101000a81548173ffffffffffffffffffffffffffffffffffffffff021916908373ffffffffffffffffffffffffffffffffffffffff16021790555050506040820151816007016000820151816000015560208201518160010160006101000a81548173ffffffffffffffffffffffffffffffffffffffff021916908373ffffffffffffffffffffffffffffffffffffffff16021790555060408201518160020160006101000a81548173ffffffffffffffffffffffffffffffffffffffff021916908373ffffffffffffffffffffffffffffffffffffffff16021790555060608201518160030160006101000a81548173ffffffffffffffffffffffffffffffffffffffff021916908373ffffffffffffffffffffffffffffffffffffffff1602179055505050606082015181600b0160008201518160000160006101000a81548173ffffffffffffffffffffffffffffffffffffffff021916908373ffffffffffffffffffffffffffffffffffffffff1602179055506020820151816001019080519060200190611c8f9291906133fc565b506040820151816002019080519060200190611cac9291906133fc565b506060820151816003019080519060200190611cc99291906133fc565b505050905050600c6080604051908101604052808481526020018881526020018781526020018681525090806001815401808255809150509060018203906000526020600020906004020160009091929091909150906004611d2c929190613503565b505081925050509392505050565b60606003805480602002602001604051908101604052809291908181526020018280548015611dbe57602002820191906000526020600020905b8160009054906101000a900473ffffffffffffffffffffffffffffffffffffffff1673ffffffffffffffffffffffffffffffffffffffff1681526020019060010190808311611d74575b5050505050905090565b60003360011515600160008373ffffffffffffffffffffffffffffffffffffffff1673ffffffffffffffffffffffffffffffffffffffff16815260200190815260200160002060009054906101000a900460ff161515141515611e2a57600080fd5b60038390806001815401808255809150509060018203906000526020600020016000909192909190916101000a81548173ffffffffffffffffffffffffffffffffffffffff021916908373ffffffffffffffffffffffffffffffffffffffff160217905550506001600460008573ffffffffffffffffffffffffffffffffffffffff1673ffffffffffffffffffffffffffffffffffffffff16815260200190815260200160002060006101000a81548160ff0219169083151502179055506002600081548092919060010191905055915050919050565b6000803360011515600460008373ffffffffffffffffffffffffffffffffffffffff1673ffffffffffffffffffffffffffffffffffffffff16815260200190815260200160002060009054906101000a900460ff161515141515611f6457600080fd5b600960008154809291906001019190505591506080604051908101604052803373ffffffffffffffffffffffffffffffffffffffff1681526020018a8a8080601f016020809104026020016040519081016040528093929190818152602001838380828437820191505050505050815260200188888080601f016020809104026020016040519081016040528093929190818152602001838380828437820191505050505050815260200186868080601f016020809104026020016040519081016040528093929190818152602001838380828437820191505050505050815250600a600084815260200190815260200160002060008201518160000160006101000a81548173ffffffffffffffffffffffffffffffffffffffff021916908373ffffffffffffffffffffffffffffffffffffffff16021790555060208201518160010190805190602001906120bb9291906133fc565b5060408201518160020190805190602001906120d89291906133fc565b5060608201518160030190805190602001906120f59291906133fc565b5090505081925050509695505050505050565b60095481565b600d6020528060005260406000206000915090508060000154908060010160c060405190810160405290816000820154815260200160018201548152602001600282018054600181600116156101000203166002900480601f0160208091040260200160405190810160405280929190818152602001828054600181600116156101000203166002900480156121e55780601f106121ba576101008083540402835291602001916121e5565b820191906000526020600020905b8154815290600101906020018083116121c857829003601f168201915b50505050508152602001600382018054600181600116156101000203166002900480601f0160208091040260200160405190810160405280929190818152602001828054600181600116156101000203166002900480156122875780601f1061225c57610100808354040283529160200191612287565b820191906000526020600020905b81548152906001019060200180831161226a57829003601f168201915b50505050508152602001600482018054600181600116156101000203166002900480601f0160208091040260200160405190810160405280929190818152602001828054600181600116156101000203166002900480156123295780601f106122fe57610100808354040283529160200191612329565b820191906000526020600020905b81548152906001019060200180831161230c57829003601f168201915b505050505081526020016005820160009054906101000a900473ffffffffffffffffffffffffffffffffffffffff1673ffffffffffffffffffffffffffffffffffffffff1673ffffffffffffffffffffffffffffffffffffffff1681525050908060070160806040519081016040529081600082015481526020016001820160009054906101000a900473ffffffffffffffffffffffffffffffffffffffff1673ffffffffffffffffffffffffffffffffffffffff1673ffffffffffffffffffffffffffffffffffffffff1681526020016002820160009054906101000a900473ffffffffffffffffffffffffffffffffffffffff1673ffffffffffffffffffffffffffffffffffffffff1673ffffffffffffffffffffffffffffffffffffffff1681526020016003820160009054906101000a900473ffffffffffffffffffffffffffffffffffffffff1673ffffffffffffffffffffffffffffffffffffffff1673ffffffffffffffffffffffffffffffffffffffff16815250509080600b01608060405190810160405290816000820160009054906101000a900473ffffffffffffffffffffffffffffffffffffffff1673ffffffffffffffffffffffffffffffffffffffff1673ffffffffffffffffffffffffffffffffffffffff168152602001600182018054600181600116156101000203166002900480601f0160208091040260200160405190810160405280929190818152602001828054600181600116156101000203166002900480156125a55780601f1061257a576101008083540402835291602001916125a5565b820191906000526020600020905b81548152906001019060200180831161258857829003601f168201915b50505050508152602001600282018054600181600116156101000203166002900480601f0160208091040260200160405190810160405280929190818152602001828054600181600116156101000203166002900480156126475780601f1061261c57610100808354040283529160200191612647565b820191906000526020600020905b81548152906001019060200180831161262a57829003601f168201915b50505050508152602001600382018054600181600116156101000203166002900480601f0160208091040260200160405190810160405280929190818152602001828054600181600116156101000203166002900480156126e95780601f106126be576101008083540402835291602001916126e9565b820191906000526020600020905b8154815290600101906020018083116126cc57829003601f168201915b505050505081525050905084565b6000803360011515600460008373ffffffffffffffffffffffffffffffffffffffff1673ffffffffffffffffffffffffffffffffffffffff16815260200190815260200160002060009054906101000a900460ff16151514151561275a57600080fd5b6005600081548092919060010191905055915060c0604051908101604052804281526020018c81526020018b8b8080601f016020809104026020016040519081016040528093929190818152602001838380828437820191505050505050815260200189898080601f016020809104026020016040519081016040528093929190818152602001838380828437820191505050505050815260200187878080601f01602080910402602001604051908101604052809392919081815260200183838082843782019150505050505081526020018573ffffffffffffffffffffffffffffffffffffffff16815250600660008481526020019081526020016000206000820151816000015560208201518160010155604082015181600201908051906020019061288a9291906133fc565b5060608201518160030190805190602001906128a79291906133fc565b5060808201518160040190805190602001906128c49291906133fc565b5060a08201518160050160006101000a81548173ffffffffffffffffffffffffffffffffffffffff021916908373ffffffffffffffffffffffffffffffffffffffff160217905550905050819250505098975050505050505050565b6000806060806060600060066000888152602001908152602001600020600001546006600089815260200190815260200160002060010154600660008a8152602001908152602001600020600201600660008b8152602001908152602001600020600301600660008c8152602001908152602001600020600401600660008d815260200190815260200160002060050160009054906101000a900473ffffffffffffffffffffffffffffffffffffffff16838054600181600116156101000203166002900480601f016020809104026020016040519081016040528092919081815260200182805460018160011615610100020316600290048015612a665780601f10612a3b57610100808354040283529160200191612a66565b820191906000526020600020905b815481529060010190602001808311612a4957829003601f168201915b50505050509350828054600181600116156101000203166002900480601f016020809104026020016040519081016040528092919081815260200182805460018160011615610100020316600290048015612b025780601f10612ad757610100808354040283529160200191612b02565b820191906000526020600020905b815481529060010190602001808311612ae557829003601f168201915b50505050509250818054600181600116156101000203166002900480601f016020809104026020016040519081016040528092919081815260200182805460018160011615610100020316600290048015612b9e5780601f10612b7357610100808354040283529160200191612b9e565b820191906000526020600020905b815481529060010190602001808311612b8157829003601f168201915b5050505050915095509550955095509550955091939550919395565b600a6020528060005260406000206000915090508060000160009054906101000a900473ffffffffffffffffffffffffffffffffffffffff1690806001018054600181600116156101000203166002900480601f016020809104026020016040519081016040528092919081815260200182805460018160011615610100020316600290048015612c8c5780601f10612c6157610100808354040283529160200191612c8c565b820191906000526020600020905b815481529060010190602001808311612c6f57829003601f168201915b505050505090806002018054600181600116156101000203166002900480601f016020809104026020016040519081016040528092919081815260200182805460018160011615610100020316600290048015612d2a5780601f10612cff57610100808354040283529160200191612d2a565b820191906000526020600020905b815481529060010190602001808311612d0d57829003601f168201915b505050505090806003018054600181600116156101000203166002900480601f016020809104026020016040519081016040528092919081815260200182805460018160011615610100020316600290048015612dc85780601f10612d9d57610100808354040283529160200191612dc8565b820191906000526020600020905b815481529060010190602001808311612dab57829003601f168201915b5050505050905084565b60003360011515600160008373ffffffffffffffffffffffffffffffffffffffff1673ffffffffffffffffffffffffffffffffffffffff16815260200190815260200160002060009054906101000a900460ff161515141515612e3457600080fd5b60018060008573ffffffffffffffffffffffffffffffffffffffff1673ffffffffffffffffffffffffffffffffffffffff16815260200190815260200160002060006101000a81548160ff021916908315150217905550600160008473ffffffffffffffffffffffffffffffffffffffff1673ffffffffffffffffffffffffffffffffffffffff16815260200190815260200160002060009054906101000a900460ff16915050919050565b600b5481565b60008060008060086000868152602001908152602001600020600001546008600087815260200190815260200160002060010160009054906101000a900473ffffffffffffffffffffffffffffffffffffffff166008600088815260200190815260200160002060020160009054906101000a900473ffffffffffffffffffffffffffffffffffffffff166008600089815260200190815260200160002060030160009054906101000a900473ffffffffffffffffffffffffffffffffffffffff1693509350935093509193509193565b612fbf613543565b600c82815481101515612fce57fe5b9060005260206000209060040201600480602002604051908101604052809291908260048015613013576020028201915b815481526020019060010190808311612fff575b50505050509050919050565b6000806000600c8681548110151561303357fe5b9060005260206000209060040201600160048110151561304f57fe5b0154915060066000838152602001908152602001600020905060c060405190810160405280428152602001868152602001826002018054600181600116156101000203166002900480601f0160208091040260200160405190810160405280929190818152602001828054600181600116156101000203166002900480156131185780601f106130ed57610100808354040283529160200191613118565b820191906000526020600020905b8154815290600101906020018083116130fb57829003601f168201915b50505050508152602001826003018054600181600116156101000203166002900480601f0160208091040260200160405190810160405280929190818152602001828054600181600116156101000203166002900480156131ba5780601f1061318f576101008083540402835291602001916131ba565b820191906000526020600020905b81548152906001019060200180831161319d57829003601f168201915b505050505081526020018581526020018260050160009054906101000a900473ffffffffffffffffffffffffffffffffffffffff1673ffffffffffffffffffffffffffffffffffffffff16815250600660008481526020019081526020016000206000820151816000015560208201518160010155604082015181600201908051906020019061324b9291906133fc565b5060608201518160030190805190602001906132689291906133fc565b5060808201518160040190805190602001906132859291906133fc565b5060a08201518160050160006101000a81548173ffffffffffffffffffffffffffffffffffffffff021916908373ffffffffffffffffffffffffffffffffffffffff16021790555090505060066000838152602001908152602001600020600d600088815260200190815260200160002060010160008201548160000155600182015481600101556002820181600201908054600181600116156101000203166002900461333492919061347c565b506003820181600301908054600181600116156101000203166002900461335c92919061347c565b506004820181600401908054600181600116156101000203166002900461338492919061347c565b506005820160009054906101000a900473ffffffffffffffffffffffffffffffffffffffff168160050160006101000a81548173ffffffffffffffffffffffffffffffffffffffff021916908373ffffffffffffffffffffffffffffffffffffffff1602179055509050506001925050509392505050565b828054600181600116156101000203166002900490600052602060002090601f016020900481019282601f1061343d57805160ff191683800117855561346b565b8280016001018555821561346b579182015b8281111561346a57825182559160200191906001019061344f565b5b5090506134789190613566565b5090565b828054600181600116156101000203166002900490600052602060002090601f016020900481019282601f106134b557805485556134f2565b828001600101855582156134f257600052602060002091601f016020900482015b828111156134f15782548255916001019190600101906134d6565b5b5090506134ff9190613566565b5090565b8260048101928215613532579160200282015b82811115613531578251825591602001919060010190613516565b5b50905061353f9190613566565b5090565b608060405190810160405280600490602082028038833980820191505090505090565b61358891905b8082111561358457600081600090555060010161356c565b5090565b90565b600061359782356140af565b905092915050565b60008083601f84011215156135b357600080fd5b8235905067ffffffffffffffff8111156135cc57600080fd5b6020830191508360018202830111156135e457600080fd5b9250929050565b60006135f782356140cf565b905092915050565b60006020828403121561361157600080fd5b600061361f8482850161358b565b91505092915050565b6000806000806000806060878903121561364157600080fd5b600087013567ffffffffffffffff81111561365b57600080fd5b61366789828a0161359f565b9650965050602087013567ffffffffffffffff81111561368657600080fd5b61369289828a0161359f565b9450945050604087013567ffffffffffffffff8111156136b157600080fd5b6136bd89828a0161359f565b92509250509295509295509295565b6000602082840312156136de57600080fd5b60006136ec848285016135eb565b91505092915050565b60008060006060848603121561370a57600080fd5b6000613718868287016135eb565b93505060206137298682870161358b565b925050604061373a8682870161358b565b9150509250925092565b60008060008060008060008060a0898b03121561376057600080fd5b600061376e8b828c016135eb565b985050602089013567ffffffffffffffff81111561378b57600080fd5b6137978b828c0161359f565b9750975050604089013567ffffffffffffffff8111156137b657600080fd5b6137c28b828c0161359f565b9550955050606089013567ffffffffffffffff8111156137e157600080fd5b6137ed8b828c0161359f565b935093505060806138008b828c0161358b565b9150509295985092959890939650565b6000806040838503121561382357600080fd5b6000613831858286016135eb565b9250506020613842858286016135eb565b9150509250929050565b600080600080600080600080600080600060e08c8e03121561386d57600080fd5b600061387b8e828f016135eb565b9b5050602061388c8e828f016135eb565b9a505060408c013567ffffffffffffffff8111156138a957600080fd5b6138b58e828f0161359f565b995099505060606138c88e828f0161358b565b97505060808c013567ffffffffffffffff8111156138e557600080fd5b6138f18e828f0161359f565b965096505060a08c013567ffffffffffffffff81111561391057600080fd5b61391c8e828f0161359f565b945094505060c08c013567ffffffffffffffff81111561393b57600080fd5b6139478e828f0161359f565b92509250509295989b509295989b9093969950565b60008060006060848603121561397157600080fd5b600061397f868287016135eb565b9350506020613990868287016135eb565b92505060406139a1868287016135eb565b9150509250925092565b6139b481614079565b82525050565b60006139c582614003565b8084526020840193506139d783613fd5565b60005b82811015613a09576139ed8683516139ab565b6139f682614045565b91506020860195506001810190506139da565b50849250505092915050565b6000613a208261400e565b808452602084019350613a3283613fe2565b60005b82811015613a6457613a48868351613abb565b613a5182614052565b9150608086019550600181019050613a35565b50849250505092915050565b613a7981614024565b613a8282613ff9565b60005b82811015613ab457613a98858351613cde565b613aa18261406c565b9150602085019450600181019050613a85565b5050505050565b613ac481614019565b613acd82613fef565b60005b82811015613aff57613ae3858351613cde565b613aec8261405f565b9150602085019450600181019050613ad0565b5050505050565b613b0f81614099565b82525050565b6000613b208261403a565b808452613b348160208601602086016140d9565b613b3d8161410c565b602085010191505092915050565b6000613b568261402f565b808452613b6a8160208601602086016140d9565b613b738161410c565b602085010191505092915050565b608082016000820151613b976000850182613cde565b506020820151613baa60208501826139ab565b506040820151613bbd60408501826139ab565b506060820151613bd060608501826139ab565b50505050565b600060c083016000830151613bee6000860182613cde565b506020830151613c016020860182613cde565b5060408301518482036040860152613c198282613b4b565b91505060608301518482036060860152613c338282613b4b565b91505060808301518482036080860152613c4d8282613b4b565b91505060a0830151613c6260a08601826139ab565b508091505092915050565b6000608083016000830151613c8560008601826139ab565b5060208301518482036020860152613c9d8282613b4b565b91505060408301518482036040860152613cb78282613b4b565b91505060608301518482036060860152613cd18282613b4b565b9150508091505092915050565b613ce7816140a5565b82525050565b6000602082019050613d0260008301846139ab565b92915050565b6000608082019050613d1d60008301876139ab565b8181036020830152613d2f8186613b15565b90508181036040830152613d438185613b15565b90508181036060830152613d578184613b15565b905095945050505050565b6000608082019050613d7760008301876139ab565b8181036020830152613d898186613b4b565b90508181036040830152613d9d8185613b4b565b90508181036060830152613db18184613b4b565b905095945050505050565b60006020820190508181036000830152613dd681846139ba565b905092915050565b60006020820190508181036000830152613df88184613a15565b905092915050565b6000608082019050613e156000830184613a70565b92915050565b6000602082019050613e306000830184613b06565b92915050565b6000602082019050613e4b6000830184613cde565b92915050565b6000608082019050613e666000830187613cde565b613e7360208301866139ab565b613e8060408301856139ab565b613e8d60608301846139ab565b95945050505050565b600060e082019050613eab6000830187613cde565b8181036020830152613ebd8186613bd6565b9050613ecc6040830185613b81565b81810360c0830152613ede8184613c6d565b905095945050505050565b600060c082019050613efe6000830189613cde565b613f0b6020830188613cde565b8181036040830152613f1d8187613b15565b90508181036060830152613f318186613b15565b90508181036080830152613f458185613b15565b9050613f5460a08301846139ab565b979650505050505050565b600060c082019050613f746000830189613cde565b613f816020830188613cde565b8181036040830152613f938187613b4b565b90508181036060830152613fa78186613b4b565b90508181036080830152613fbb8185613b4b565b9050613fca60a08301846139ab565b979650505050505050565b6000602082019050919050565b6000602082019050919050565b6000819050919050565b6000819050919050565b600081519050919050565b600081519050919050565b600060049050919050565b600060049050919050565b600081519050919050565b600081519050919050565b6000602082019050919050565b6000602082019050919050565b6000602082019050919050565b6000602082019050919050565b600073ffffffffffffffffffffffffffffffffffffffff82169050919050565b60008115159050919050565b6000819050919050565b600073ffffffffffffffffffffffffffffffffffffffff82169050919050565b6000819050919050565b60005b838110156140f75780820151818401526020810190506140dc565b83811115614106576000848401525b50505050565b6000601f19601f83011690509190505600a265627a7a723058205af8056456f09c74776a9c5aa61f82bb3613d177afa9e28d80d5e0c376d0b0246c6578706572696d656e74616cf50037",
  "source": "pragma solidity ^0.4.24;\npragma experimental ABIEncoderV2;\n\n// import './Archaeologists.sol';\n\n/** @title Registry. */\ncontract Registry {\n  address public creator;\n  mapping (address => bool) public isDelegate;\n\n  // Archaeologists archaeologists\n  uint public archaeologistsRegistered = 0;\n  address[] public archaeologists;\n  mapping (address => bool) public isArchaeologist;\n\n  uint public identificationsCreated = 0;\n  mapping (uint => Identification) public identificationData;\n\n  uint public attributionsCreated = 0;\n  mapping (uint => Attribution) public attributionData;\n\n  uint public locationsCreated = 0;\n  mapping (uint => Location) public locationData;\n\n  uint public artifactsRegistered = 0;\n  uint[4][] public artifacts;\n  mapping (uint => Artifact) public artifactData;\n\n  /** @dev Artifact details of the artifact being added.\n    * @param timestamp Client unix time of verification.\n    * @TBC\n    */\n  struct Artifact {\n    uint uid;\n    Identification identification;\n    Attribution attribution;\n    Location location;\n  }\n\n  /** @dev Identification details of the artifact being added.\n    * @param timestamp Client unix time of verification.\n    * @TBC\n    */\n  struct Identification {\n    uint blockTimeModified; // block.timestamp\n    uint dateModified; // unix\n    string doi;\n    string rfid;\n    string provenance;\n    address wallet;\n  }\n\n  /** @dev Attribution supports the provenance of the artifact.\n    * @param dateFound Date in unix time that the artifact was found.\n    * @param archaeologist Address of the archaeologist registering the artifact\n    * @TBC\n    */\n  struct Attribution {\n    uint dateFound;\n    address archaeologist;\n    address governmentVerifier;\n    address owner;\n  }\n\n  /** @dev Location details the location of the artifact.\n    * @param holder Address of the identity currently holding the artifact.\n    * @TBC\n    */\n  struct Location {\n    address holder;\n    string currentLatitude;\n    string currentLongitude;\n    string transitStatus;\n  }\n\n  constructor(/* address _delegate*/) public {\n    creator = msg.sender;\n    isDelegate[msg.sender] = true;\n  }\n\n  modifier onlyCreator {\n    require(msg.sender == creator);\n    _;\n  }\n\n  modifier onlyAuthorized(address _address) {\n    require(isDelegate[_address] == true);\n    _;\n  }\n\n  modifier onlyArchaeologists(address _address) {\n\t\trequire(isArchaeologist[_address] == true);\n\t\t_;\n\t}\n\n  // view functions promise not to modify the state\n  // pure functions promise not to read from or modify the state\n\n  // external: visible to other contracts and cannot be called internally\n  function addDelegate(\n    address _address\n  ) external onlyAuthorized(msg.sender) returns (bool) {\n    isDelegate[_address] = true;\n    return isDelegate[_address];\n  }\n\n  function addArchaeologist(\n    address _address\n  ) external onlyAuthorized(msg.sender) returns (uint) {\n    archaeologists.push(_address);\n    isArchaeologist[_address] = true;\n    return archaeologistsRegistered++;\n  }\n\n  function createIdentification(\n    uint dateModified,\n    string doi,\n    string rfid,\n    string provenance,\n    address wallet\n  ) external onlyArchaeologists(msg.sender) returns (uint) {\n    uint id = identificationsCreated++;\n    identificationData[id] = Identification({\n      blockTimeModified: block.timestamp,\n      dateModified: dateModified,\n      doi: doi,\n      rfid: rfid,\n      provenance: provenance,\n      wallet: wallet\n    });\n    return id;\n  }\n\n  function createAttribution(\n    uint dateFound,\n    address governmentVerifier,\n    address owner\n  ) external onlyArchaeologists(msg.sender) returns (uint) {\n    uint id = attributionsCreated++;\n    attributionData[id] = Attribution({\n      dateFound: dateFound,\n      archaeologist: msg.sender,\n      governmentVerifier: governmentVerifier,\n      owner: owner\n    });\n    return id;\n  }\n\n  function createLocation(\n    string currentLatitude,\n    string currentLongitude,\n    string transitStatus\n  ) external onlyArchaeologists(msg.sender) returns (uint) {\n    uint id = locationsCreated++;\n    locationData[id] = Location({\n      holder: msg.sender,\n      currentLatitude: currentLatitude,\n      currentLongitude: currentLongitude,\n      transitStatus: transitStatus\n    });\n    return id;\n  }\n\n  function addArtifact(\n    uint identificationId,\n    uint attributionId,\n    uint locationId\n  ) external onlyArchaeologists(msg.sender) returns (uint) {\n    uint artifactId = artifactsRegistered++;\n    artifactData[artifactId] = Artifact({\n      uid: artifactId,\n      identification: identificationData[identificationId],\n      attribution: attributionData[attributionId],\n      location: locationData[locationId]\n    });\n    artifacts.push([artifactId, identificationId, attributionId, locationId]);\n    return artifactId;\n  }\n\n  function updateArtifactLocation(\n    uint artifactId,\n    uint clientTimestamp,\n    string provenance,\n    address holder,\n    string lat,\n    string lng,\n    string status\n  ) external returns (bool) {\n    require(artifactData[artifactId].attribution.owner == msg.sender);\n    uint locationId = artifacts[artifactId][3];\n    locationData[locationId] = Location({\n      holder: holder,\n      currentLatitude: lat,\n      currentLongitude: lng,\n      transitStatus: status\n    });\n    artifactData[artifactId].location = locationData[locationId];\n    updateArtifact(artifactId, clientTimestamp, provenance);\n    return true;\n  }\n\n  // external view: promises not to modify state\n  function getArchaeologists() external view returns (address[]) {\n    return archaeologists;\n  }\n\n  function getArchaeologistById(uint id) external view returns (address) {\n    return archaeologists[id];\n  }\n\n  function getIdentificationById(uint id) external view returns (\n    uint,\n    uint,\n    string,\n    string,\n    string,\n    address\n  ) {\n    return (\n      identificationData[id].blockTimeModified,\n      identificationData[id].dateModified,\n      identificationData[id].doi,\n      identificationData[id].rfid,\n      identificationData[id].provenance,\n      identificationData[id].wallet\n    );\n  }\n\n  function getAttributionById(uint id) external view returns (\n    uint,\n    address,\n    address,\n    address\n  ) {\n    return (\n      attributionData[id].dateFound,\n      attributionData[id].archaeologist,\n      attributionData[id].governmentVerifier,\n      attributionData[id].owner\n    );\n  }\n\n  function getLocationById(uint id) external view returns (\n    address,\n    string,\n    string,\n    string\n  ) {\n    return (\n      locationData[id].holder,\n      locationData[id].currentLatitude,\n      locationData[id].currentLongitude,\n      locationData[id].transitStatus\n    );\n  }\n\n  function getArtifacts() external view returns (uint[4][]) {\n    return artifacts;\n  }\n\n  function getArtifactById(uint id) external view returns (uint[4]) {\n    return artifacts[id];\n  }\n\n  // external pure: promises not to modify or read from state\n\n  // public: visisble to this contract, contracts derived from this contract, and any other contracts\n  function () public payable {}\n\n  // internal: visible to this contract and derived contracts\n\n  // private: visible to this contract only\n  function updateArtifact(\n    uint artifactId, uint clientTimestamp, string provenance\n  ) private returns (bool) {\n    uint identificationId = artifacts[artifactId][1];\n    Identification storage identification = identificationData[identificationId];\n    identificationData[identificationId] = Identification({\n      blockTimeModified: block.timestamp,\n      dateModified: clientTimestamp,\n      doi: identification.doi,\n      rfid: identification.rfid,\n      provenance: provenance,\n      wallet: identification.wallet\n    });\n    artifactData[artifactId].identification = identificationData[identificationId];\n    return true;\n  }\n\n}\n",
  "sourcePath": "/Users/val/Documents/Freelance/globalxplorerRoot/gxregistry/ethereum/contracts/Registry.sol",
  "compiler": {
    "name": "solc",
    "version": "0.4.24+commit.e67f0147.Emscripten.clang"
  },
  "schemaVersion": "2.0.1",
  "updatedAt": "2018-11-01T14:58:52.274Z"
}